{
  "contractName": "story_telling",
  "abi": [
    {
      "constant": true,
      "inputs": [],
      "name": "intro",
      "outputs": [
        {
          "name": "",
          "type": "string"
        }
      ],
      "payable": false,
      "stateMutability": "view",
      "type": "function"
    },
    {
      "constant": true,
      "inputs": [],
      "name": "maxLen",
      "outputs": [
        {
          "name": "",
          "type": "int256"
        }
      ],
      "payable": false,
      "stateMutability": "view",
      "type": "function"
    },
    {
      "constant": true,
      "inputs": [
        {
          "name": "",
          "type": "uint256"
        }
      ],
      "name": "leafNodeToLen",
      "outputs": [
        {
          "name": "",
          "type": "int256"
        }
      ],
      "payable": false,
      "stateMutability": "view",
      "type": "function"
    },
    {
      "constant": true,
      "inputs": [],
      "name": "id",
      "outputs": [
        {
          "name": "",
          "type": "uint256"
        }
      ],
      "payable": false,
      "stateMutability": "view",
      "type": "function"
    },
    {
      "constant": true,
      "inputs": [
        {
          "name": "",
          "type": "uint256"
        }
      ],
      "name": "idToNode",
      "outputs": [
        {
          "name": "node_id",
          "type": "uint256"
        },
        {
          "name": "plot",
          "type": "string"
        },
        {
          "name": "parentId",
          "type": "uint256"
        },
        {
          "name": "lenTillNode",
          "type": "int256"
        }
      ],
      "payable": false,
      "stateMutability": "view",
      "type": "function"
    },
    {
      "constant": true,
      "inputs": [],
      "name": "allStories",
      "outputs": [
        {
          "name": "",
          "type": "string"
        }
      ],
      "payable": false,
      "stateMutability": "view",
      "type": "function"
    },
    {
      "inputs": [
        {
          "name": "_intro",
          "type": "string"
        }
      ],
      "payable": false,
      "stateMutability": "nonpayable",
      "type": "constructor"
    },
    {
      "constant": true,
      "inputs": [
        {
          "name": "i",
          "type": "uint256"
        }
      ],
      "name": "uint2str",
      "outputs": [
        {
          "name": "",
          "type": "string"
        }
      ],
      "payable": false,
      "stateMutability": "pure",
      "type": "function"
    },
    {
      "constant": false,
      "inputs": [],
      "name": "printStories",
      "outputs": [],
      "payable": false,
      "stateMutability": "nonpayable",
      "type": "function"
    },
    {
      "constant": false,
      "inputs": [
        {
          "name": "_id",
          "type": "uint256"
        },
        {
          "name": "_plot",
          "type": "string"
        }
      ],
      "name": "userRegister",
      "outputs": [
        {
          "name": "",
          "type": "bool"
        }
      ],
      "payable": false,
      "stateMutability": "nonpayable",
      "type": "function"
    }
  ],
  "bytecode": "0x60806040523480156200001157600080fd5b506040516200142838038062001428833981018060405281019080805182019291905050506200004062000158565b81600090805190602001906200005892919062000181565b5060016002819055506080604051908101604052806002548152602001838152602001600081526020016001815250905080600460006002548152602001908152602001600020600082015181600001556020820151816001019080519060200190620000c792919062000208565b50604082015181600201556060820151816003015590505060016005600060025481526020019081526020016000208190555060016003819055506040805190810160405280600181526020017f2000000000000000000000000000000000000000000000000000000000000000815250600190805190602001906200014f92919062000181565b505050620002b7565b608060405190810160405280600081526020016060815260200160008152602001600081525090565b828054600181600116156101000203166002900490600052602060002090601f016020900481019282601f10620001c457805160ff1916838001178555620001f5565b82800160010185558215620001f5579182015b82811115620001f4578251825591602001919060010190620001d7565b5b5090506200020491906200028f565b5090565b828054600181600116156101000203166002900490600052602060002090601f016020900481019282601f106200024b57805160ff19168380011785556200027c565b828001600101855582156200027c579182015b828111156200027b5782518255916020019190600101906200025e565b5b5090506200028b91906200028f565b5090565b620002b491905b80821115620002b057600081600090555060010162000296565b5090565b90565b61116180620002c76000396000f300608060405260043610610099576000357c0100000000000000000000000000000000000000000000000000000000900463ffffffff1680632cc0e3901461009e57806333b5ba7e1461012e578063467ef18814610145578063583e1055146101d05780636f340349146101fb578063af640d0f1461023c578063d89e8cae14610267578063e677011c14610322578063f76f950e146103b2575b600080fd5b3480156100aa57600080fd5b506100b3610458565b6040518080602001828103825283818151815260200191508051906020019080838360005b838110156100f35780820151818401526020810190506100d8565b50505050905090810190601f1680156101205780820380516001836020036101000a031916815260200191505b509250505060405180910390f35b34801561013a57600080fd5b506101436104f6565b005b34801561015157600080fd5b506101b660048036038101908080359060200190929190803590602001908201803590602001908080601f01602080910402602001604051908101604052809392919081815260200183838082843782019150505050505091929192905050506109b6565b604051808215151515815260200191505060405180910390f35b3480156101dc57600080fd5b506101e5610bf1565b6040518082815260200191505060405180910390f35b34801561020757600080fd5b5061022660048036038101908080359060200190929190505050610bf7565b6040518082815260200191505060405180910390f35b34801561024857600080fd5b50610251610c0f565b6040518082815260200191505060405180910390f35b34801561027357600080fd5b5061029260048036038101908080359060200190929190505050610c15565b6040518085815260200180602001848152602001838152602001828103825285818151815260200191508051906020019080838360005b838110156102e45780820151818401526020810190506102c9565b50505050905090810190601f1680156103115780820380516001836020036101000a031916815260200191505b509550505050505060405180910390f35b34801561032e57600080fd5b50610337610cdd565b6040518080602001828103825283818151815260200191508051906020019080838360005b8381101561037757808201518184015260208101905061035c565b50505050905090810190601f1680156103a45780820380516001836020036101000a031916815260200191505b509250505060405180910390f35b3480156103be57600080fd5b506103dd60048036038101908080359060200190929190505050610d7b565b6040518080602001828103825283818151815260200191508051906020019080838360005b8381101561041d578082015181840152602081019050610402565b50505050905090810190601f16801561044a5780820380516001836020036101000a031916815260200191505b509250505060405180910390f35b60008054600181600116156101000203166002900480601f0160208091040260200160405190810160405280929190818152602001828054600181600116156101000203166002900480156104ee5780601f106104c3576101008083540402835291602001916104ee565b820191906000526020600020905b8154815290600101906020018083116104d157829003601f168201915b505050505081565b6060806000806060806060806040805190810160405280600181526020017f5b0000000000000000000000000000000000000000000000000000000000000081525097506040805190810160405280600181526020017f5d000000000000000000000000000000000000000000000000000000000000008152509650600195505b600254861115156109ac577ffffffffffffffffffffffffffffffffffffffffffffffffffffffffffffffd66600560008881526020019081526020016000205414151561099f578594506040805190810160405280600181526020017f200000000000000000000000000000000000000000000000000000000000000081525093505b6000851415156107785761060d85610d7b565b9250600460008681526020019081526020016000206001018054600181600116156101000203166002900480601f0160208091040260200160405190810160405280929190818152602001828054600181600116156101000203166002900480156106b95780601f1061068e576101008083540402835291602001916106b9565b820191906000526020600020905b81548152906001019060200180831161069c57829003601f168201915b505050505091508790506106e66106cf84610ed2565b6106d883610ed2565b610f0090919063ffffffff16565b905061070b6106f488610ed2565b6106fd83610ed2565b610f0090919063ffffffff16565b905061073061071983610ed2565b61072283610ed2565b610f0090919063ffffffff16565b905061075561073e85610ed2565b61074783610ed2565b610f0090919063ffffffff16565b9050809350600460008681526020019081526020016000206002015494506105fa565b6107d06107b96040805190810160405280600381526020017f2023200000000000000000000000000000000000000000000000000000000000815250610ed2565b6107c286610ed2565b610f0090919063ffffffff16565b9350600354600460008881526020019081526020016000206003015414156108ca576108af61089860018054600181600116156101000203166002900480601f01602080910402602001604051908101604052809291908181526020018280546001816001161561010002031660029004801561088e5780601f106108635761010080835404028352916020019161088e565b820191906000526020600020905b81548152906001019060200180831161087157829003601f168201915b5050505050610ed2565b6108a186610ed2565b610f0090919063ffffffff16565b600190805190602001906108c4929190610fcd565b5061099e565b6109876108d685610ed2565b61097960018054600181600116156101000203166002900480601f01602080910402602001604051908101604052809291908181526020018280546001816001161561010002031660029004801561096f5780601f106109445761010080835404028352916020019161096f565b820191906000526020600020905b81548152906001019060200180831161095257829003601f168201915b5050505050610ed2565b610f0090919063ffffffff16565b6001908051906020019061099c929190610fcd565b505b5b8580600101965050610577565b5050505050505050565b6000806109c161104d565b8460025481111580156109d45750600081115b1515610a48576040517f08c379a000000000000000000000000000000000000000000000000000000000815260040180806020018281038252600e8152602001807f456e7465722076616c696420494400000000000000000000000000000000000081525060200191505060405180910390fd5b60016002600082825401925050819055506040805190810160405280600181526020017f200000000000000000000000000000000000000000000000000000000000000081525060019080519060200190610aa4929190610fcd565b5060016004600088815260200190815260200160002060030154019250826003541215610ad357826003819055505b608060405190810160405280600254815260200186815260200187815260200184815250915081600460006002548152602001908152602001600020600082015181600001556020820151816001019080519060200190610b35929190611076565b50604082015181600201556060820151816003015590505082600560006002548152602001908152602001600020819055507ffffffffffffffffffffffffffffffffffffffffffffffffffffffffffffffd666005600088815260200190815260200160002054141515610bdc577ffffffffffffffffffffffffffffffffffffffffffffffffffffffffffffffd6660056000888152602001908152602001600020819055505b610be46104f6565b6001935050505092915050565b60035481565b60056020528060005260406000206000915090505481565b60025481565b6004602052806000526040600020600091509050806000015490806001018054600181600116156101000203166002900480601f016020809104026020016040519081016040528092919081815260200182805460018160011615610100020316600290048015610cc75780601f10610c9c57610100808354040283529160200191610cc7565b820191906000526020600020905b815481529060010190602001808311610caa57829003601f168201915b5050505050908060020154908060030154905084565b60018054600181600116156101000203166002900480601f016020809104026020016040519081016040528092919081815260200182805460018160011615610100020316600290048015610d735780601f10610d4857610100808354040283529160200191610d73565b820191906000526020600020905b815481529060010190602001808311610d5657829003601f168201915b505050505081565b60606000806060600080861415610dc9576040805190810160405280600181526020017f30000000000000000000000000000000000000000000000000000000000000008152509450610ec9565b8593505b600084141515610df3578280600101935050600a84811515610deb57fe5b049350610dcd565b826040519080825280601f01601f191660200182016040528015610e265781602001602082028038833980820191505090505b5091506001830390505b600086141515610ec557600a86811515610e4657fe5b066030017f010000000000000000000000000000000000000000000000000000000000000002828280600190039350815181101515610e8157fe5b9060200101907effffffffffffffffffffffffffffffffffffffffffffffffffffffffffffff1916908160001a905350600a86811515610ebd57fe5b049550610e30565b8194505b50505050919050565b610eda6110f6565b600060208301905060408051908101604052808451815260200182815250915050919050565b606080600083600001518560000151016040519080825280601f01601f191660200182016040528015610f425781602001602082028038833980820191505090505b509150602082019050610f5e8186602001518760000151610f82565b610f778560000151820185602001518660000151610f82565b819250505092915050565b60005b602082101515610faa5782518452602084019350602083019250602082039150610f85565b6001826020036101000a0390508019835116818551168181178652505050505050565b828054600181600116156101000203166002900490600052602060002090601f016020900481019282601f1061100e57805160ff191683800117855561103c565b8280016001018555821561103c579182015b8281111561103b578251825591602001919060010190611020565b5b5090506110499190611110565b5090565b608060405190810160405280600081526020016060815260200160008152602001600081525090565b828054600181600116156101000203166002900490600052602060002090601f016020900481019282601f106110b757805160ff19168380011785556110e5565b828001600101855582156110e5579182015b828111156110e45782518255916020019190600101906110c9565b5b5090506110f29190611110565b5090565b604080519081016040528060008152602001600081525090565b61113291905b8082111561112e576000816000905550600101611116565b5090565b905600a165627a7a723058203860cc9e530ad8acf4625941b334de6d1c87cf08add1f89a42fa8a0e7f5062bb0029",
  "source": "pragma solidity ^0.4.24;\nimport \"./strings.sol\";\n\ncontract story_telling{\n    using strings for *;\n\tstring public intro;\n\tstring public allStories;\n\tuint public id;\n\tint public maxLen;\n\t\n\tstruct userInfo{\n        uint node_id;\n        string plot; \n        uint parentId;\n        int lenTillNode;\n    }\n\n    //mapping of Id to user\n    mapping(uint => userInfo) public idToNode;\n\n    //mapping of every leaf node path length\n    mapping(uint => int) public leafNodeToLen;\n\n    modifier validID(uint _id){\n        require(_id <= id && _id > 0,\"Enter valid ID\");\n    _;}\n\n\tconstructor(string _intro) public\n\t{\n\t\tintro = _intro;\n\t\tid = 1;\n\t\tuserInfo memory newUser = userInfo(id,_intro,0,1);\n\t\tidToNode[id] = newUser;\n\t\tleafNodeToLen[id] = 1;\n\t\tmaxLen = 1;\n\t\tallStories = \" \";\n\t}\n\n    function uint2str(uint i) pure public \n    returns (string)\n    {\n\t    if (i == 0) \n\t    \treturn \"0\";\n\t    uint j = i;\n\t    uint length;\n\t    while (j != 0){\n\t        length++;\n\t        j /= 10;\n\t    }\n\t    bytes memory bstr = new bytes(length);\n\t    uint k = length - 1;\n\t    while (i != 0){\n\t        bstr[k--] = byte(48 + i % 10);\n\t        i /= 10;\n\t    }\n\t    return string(bstr);\n\t}\n\n\tfunction printStories() public\n\t{\n\t\tstring memory open = \"[\";\n\t\tstring memory close = \"]\";\n\n\t\tfor(uint nodeID = 1;nodeID <= id;nodeID++){\n\t\t\tif(leafNodeToLen[nodeID] != -666){\n\t\t\t\tuint curID = nodeID;\n\t\t\t\tstring memory wholeStory = \" \";\n\t\t\t\twhile(curID != 0){\n\t\t\t\t\t\n\t\t\t\t\tstring memory IDtoStr = uint2str(curID);\n\t\t\t\t\tstring memory curPlot = idToNode[curID].plot;\n\t\t\t\t\tstring memory temp = open;\n\t\t\t\t\t\n\t\t\t\t\ttemp = temp.toSlice().concat(IDtoStr.toSlice());\n\t\t\t\t\ttemp = temp.toSlice().concat(close.toSlice());\n\t\t\t\t\ttemp = temp.toSlice().concat(curPlot.toSlice());\n\t\t\t\t\ttemp = temp.toSlice().concat(wholeStory.toSlice());\n\t\t\t\t\twholeStory = temp;\n\t\t\t\t\tcurID = idToNode[curID].parentId;\n\t\t\t\t}\n\t\t\t\twholeStory = wholeStory.toSlice().concat(\" # \".toSlice());\n\t\t\t\tif(idToNode[nodeID].lenTillNode == maxLen)\n\t\t\t\t\tallStories = wholeStory.toSlice().concat(allStories.toSlice());\n\t\t\t\telse\n\t\t\t\t\tallStories = allStories.toSlice().concat(wholeStory.toSlice());\n\t\t\t}\n\t\t}\n\t}\n\n\t//user providing id of node to extend and his plot\n\tfunction userRegister(uint _id,string _plot) public\n\tvalidID(_id)\n\treturns(bool)\n\t{\n\t\tid += 1;\n\t\tallStories = \" \";\n\t\t//create new user object\n\t\tint l = idToNode[_id].lenTillNode + 1;\n\t\tif(maxLen < l){\n\t\t\tmaxLen = l;\n\t\t}\n\n\t\tuserInfo memory newUser = userInfo(id,_plot,_id,l);\n\t\tidToNode[id] = newUser;\n\n\t\t//add the new user as leaf node to the leafNodeToLen map\n\t\tleafNodeToLen[id] = l;\n\t\t//disable its parent from the leafNodeToLen map\n\t\tif(leafNodeToLen[_id] != -666){\n\t\t\tleafNodeToLen[_id] = -666;\n\t\t}\n\t\tprintStories();\n\t\treturn true;\n\t}\n}",
  "sourcePath": "/home/advaya/iiit_hyd/sem_3/blockchain/dapp/story_telling_DApp/contracts/story_telling.sol",
  "compiler": {
    "name": "solc",
    "version": "0.4.24+commit.e67f0147.Emscripten.clang"
  },
  "schemaVersion": "2.0.1",
  "updatedAt": "2018-11-14T14:27:06.394Z"
}